{
	"_format": "hh-sol-artifact-1",
	"contractName": "SkaterPunks",
	"sourceName": "contracts/SkaterPunks.sol",
	"abi": [
		{
			"inputs": [
				{
					"internalType": "string",
					"name": "_tokenName",
					"type": "string"
				},
				{
					"internalType": "string",
					"name": "_tokenSymbol",
					"type": "string"
				},
				{
					"internalType": "uint256",
					"name": "_cost",
					"type": "uint256"
				},
				{
					"internalType": "uint256",
					"name": "_maxSupply",
					"type": "uint256"
				},
				{
					"internalType": "uint256",
					"name": "_maxMintAmountPerTx",
					"type": "uint256"
				},
				{
					"internalType": "string",
					"name": "_hiddenMetadataUri",
					"type": "string"
				}
			],
			"stateMutability": "nonpayable",
			"type": "constructor"
		},
		{
			"inputs": [],
			"name": "ApprovalCallerNotOwnerNorApproved",
			"type": "error"
		},
		{
			"inputs": [],
			"name": "ApprovalQueryForNonexistentToken",
			"type": "error"
		},
		{
			"inputs": [],
			"name": "ApprovalToCurrentOwner",
			"type": "error"
		},
		{
			"inputs": [],
			"name": "ApproveToCaller",
			"type": "error"
		},
		{
			"inputs": [],
			"name": "BalanceQueryForZeroAddress",
			"type": "error"
		},
		{
			"inputs": [],
			"name": "MintToZeroAddress",
			"type": "error"
		},
		{
			"inputs": [],
			"name": "MintZeroQuantity",
			"type": "error"
		},
		{
			"inputs": [],
			"name": "OwnerQueryForNonexistentToken",
			"type": "error"
		},
		{
			"inputs": [],
			"name": "TransferCallerNotOwnerNorApproved",
			"type": "error"
		},
		{
			"inputs": [],
			"name": "TransferFromIncorrectOwner",
			"type": "error"
		},
		{
			"inputs": [],
			"name": "TransferToNonERC721ReceiverImplementer",
			"type": "error"
		},
		{
			"inputs": [],
			"name": "TransferToZeroAddress",
			"type": "error"
		},
		{
			"anonymous": false,
			"inputs": [
				{
					"indexed": true,
					"internalType": "address",
					"name": "owner",
					"type": "address"
				},
				{
					"indexed": true,
					"internalType": "address",
					"name": "approved",
					"type": "address"
				},
				{
					"indexed": true,
					"internalType": "uint256",
					"name": "tokenId",
					"type": "uint256"
				}
			],
			"name": "Approval",
			"type": "event"
		},
		{
			"anonymous": false,
			"inputs": [
				{
					"indexed": true,
					"internalType": "address",
					"name": "owner",
					"type": "address"
				},
				{
					"indexed": true,
					"internalType": "address",
					"name": "operator",
					"type": "address"
				},
				{
					"indexed": false,
					"internalType": "bool",
					"name": "approved",
					"type": "bool"
				}
			],
			"name": "ApprovalForAll",
			"type": "event"
		},
		{
			"anonymous": false,
			"inputs": [
				{
					"indexed": true,
					"internalType": "address",
					"name": "previousOwner",
					"type": "address"
				},
				{
					"indexed": true,
					"internalType": "address",
					"name": "newOwner",
					"type": "address"
				}
			],
			"name": "OwnershipTransferred",
			"type": "event"
		},
		{
			"anonymous": false,
			"inputs": [
				{
					"indexed": true,
					"internalType": "address",
					"name": "from",
					"type": "address"
				},
				{
					"indexed": true,
					"internalType": "address",
					"name": "to",
					"type": "address"
				},
				{
					"indexed": true,
					"internalType": "uint256",
					"name": "tokenId",
					"type": "uint256"
				}
			],
			"name": "Transfer",
			"type": "event"
		},
		{
			"inputs": [
				{
					"internalType": "address",
					"name": "to",
					"type": "address"
				},
				{
					"internalType": "uint256",
					"name": "tokenId",
					"type": "uint256"
				}
			],
			"name": "approve",
			"outputs": [],
			"stateMutability": "nonpayable",
			"type": "function"
		},
		{
			"inputs": [
				{
					"internalType": "address",
					"name": "owner",
					"type": "address"
				}
			],
			"name": "balanceOf",
			"outputs": [
				{
					"internalType": "uint256",
					"name": "",
					"type": "uint256"
				}
			],
			"stateMutability": "view",
			"type": "function"
		},
		{
			"inputs": [],
			"name": "cost",
			"outputs": [
				{
					"internalType": "uint256",
					"name": "",
					"type": "uint256"
				}
			],
			"stateMutability": "view",
			"type": "function"
		},
		{
			"inputs": [
				{
					"internalType": "uint256",
					"name": "tokenId",
					"type": "uint256"
				}
			],
			"name": "getApproved",
			"outputs": [
				{
					"internalType": "address",
					"name": "",
					"type": "address"
				}
			],
			"stateMutability": "view",
			"type": "function"
		},
		{
			"inputs": [],
			"name": "hiddenMetadataUri",
			"outputs": [
				{
					"internalType": "string",
					"name": "",
					"type": "string"
				}
			],
			"stateMutability": "view",
			"type": "function"
		},
		{
			"inputs": [
				{
					"internalType": "address",
					"name": "owner",
					"type": "address"
				},
				{
					"internalType": "address",
					"name": "operator",
					"type": "address"
				}
			],
			"name": "isApprovedForAll",
			"outputs": [
				{
					"internalType": "bool",
					"name": "",
					"type": "bool"
				}
			],
			"stateMutability": "view",
			"type": "function"
		},
		{
			"inputs": [],
			"name": "maxMintAmountPerTx",
			"outputs": [
				{
					"internalType": "uint256",
					"name": "",
					"type": "uint256"
				}
			],
			"stateMutability": "view",
			"type": "function"
		},
		{
			"inputs": [],
			"name": "maxSupply",
			"outputs": [
				{
					"internalType": "uint256",
					"name": "",
					"type": "uint256"
				}
			],
			"stateMutability": "view",
			"type": "function"
		},
		{
			"inputs": [],
			"name": "merkleRoot",
			"outputs": [
				{
					"internalType": "bytes32",
					"name": "",
					"type": "bytes32"
				}
			],
			"stateMutability": "view",
			"type": "function"
		},
		{
			"inputs": [
				{
					"internalType": "uint256",
					"name": "_mintAmount",
					"type": "uint256"
				}
			],
			"name": "mint",
			"outputs": [],
			"stateMutability": "payable",
			"type": "function"
		},
		{
			"inputs": [],
			"name": "name",
			"outputs": [
				{
					"internalType": "string",
					"name": "",
					"type": "string"
				}
			],
			"stateMutability": "view",
			"type": "function"
		},
		{
			"inputs": [],
			"name": "owner",
			"outputs": [
				{
					"internalType": "address",
					"name": "",
					"type": "address"
				}
			],
			"stateMutability": "view",
			"type": "function"
		},
		{
			"inputs": [
				{
					"internalType": "uint256",
					"name": "tokenId",
					"type": "uint256"
				}
			],
			"name": "ownerOf",
			"outputs": [
				{
					"internalType": "address",
					"name": "",
					"type": "address"
				}
			],
			"stateMutability": "view",
			"type": "function"
		},
		{
			"inputs": [],
			"name": "paused",
			"outputs": [
				{
					"internalType": "bool",
					"name": "",
					"type": "bool"
				}
			],
			"stateMutability": "view",
			"type": "function"
		},
		{
			"inputs": [],
			"name": "renounceOwnership",
			"outputs": [],
			"stateMutability": "nonpayable",
			"type": "function"
		},
		{
			"inputs": [],
			"name": "revealed",
			"outputs": [
				{
					"internalType": "bool",
					"name": "",
					"type": "bool"
				}
			],
			"stateMutability": "view",
			"type": "function"
		},
		{
			"inputs": [
				{
					"internalType": "address",
					"name": "from",
					"type": "address"
				},
				{
					"internalType": "address",
					"name": "to",
					"type": "address"
				},
				{
					"internalType": "uint256",
					"name": "tokenId",
					"type": "uint256"
				}
			],
			"name": "safeTransferFrom",
			"outputs": [],
			"stateMutability": "nonpayable",
			"type": "function"
		},
		{
			"inputs": [
				{
					"internalType": "address",
					"name": "from",
					"type": "address"
				},
				{
					"internalType": "address",
					"name": "to",
					"type": "address"
				},
				{
					"internalType": "uint256",
					"name": "tokenId",
					"type": "uint256"
				},
				{
					"internalType": "bytes",
					"name": "_data",
					"type": "bytes"
				}
			],
			"name": "safeTransferFrom",
			"outputs": [],
			"stateMutability": "nonpayable",
			"type": "function"
		},
		{
			"inputs": [
				{
					"internalType": "address",
					"name": "operator",
					"type": "address"
				},
				{
					"internalType": "bool",
					"name": "approved",
					"type": "bool"
				}
			],
			"name": "setApprovalForAll",
			"outputs": [],
			"stateMutability": "nonpayable",
			"type": "function"
		},
		{
			"inputs": [
				{
					"internalType": "uint256",
					"name": "_cost",
					"type": "uint256"
				}
			],
			"name": "setCost",
			"outputs": [],
			"stateMutability": "nonpayable",
			"type": "function"
		},
		{
			"inputs": [
				{
					"internalType": "string",
					"name": "_hiddenMetadataUri",
					"type": "string"
				}
			],
			"name": "setHiddenMetadataUri",
			"outputs": [],
			"stateMutability": "nonpayable",
			"type": "function"
		},
		{
			"inputs": [
				{
					"internalType": "uint256",
					"name": "_maxMintAmountPerTx",
					"type": "uint256"
				}
			],
			"name": "setMaxMintAmountPerTx",
			"outputs": [],
			"stateMutability": "nonpayable",
			"type": "function"
		},
		{
			"inputs": [
				{
					"internalType": "bytes32",
					"name": "_merkleRoot",
					"type": "bytes32"
				}
			],
			"name": "setMerkleRoot",
			"outputs": [],
			"stateMutability": "nonpayable",
			"type": "function"
		},
		{
			"inputs": [
				{
					"internalType": "bool",
					"name": "_state",
					"type": "bool"
				}
			],
			"name": "setPaused",
			"outputs": [],
			"stateMutability": "nonpayable",
			"type": "function"
		},
		{
			"inputs": [
				{
					"internalType": "bool",
					"name": "_state",
					"type": "bool"
				}
			],
			"name": "setRevealed",
			"outputs": [],
			"stateMutability": "nonpayable",
			"type": "function"
		},
		{
			"inputs": [
				{
					"internalType": "string",
					"name": "_uriPrefix",
					"type": "string"
				}
			],
			"name": "setUriPrefix",
			"outputs": [],
			"stateMutability": "nonpayable",
			"type": "function"
		},
		{
			"inputs": [
				{
					"internalType": "string",
					"name": "_uriSuffix",
					"type": "string"
				}
			],
			"name": "setUriSuffix",
			"outputs": [],
			"stateMutability": "nonpayable",
			"type": "function"
		},
		{
			"inputs": [
				{
					"internalType": "bool",
					"name": "_state",
					"type": "bool"
				}
			],
			"name": "setWhitelistMintEnabled",
			"outputs": [],
			"stateMutability": "nonpayable",
			"type": "function"
		},
		{
			"inputs": [
				{
					"internalType": "bytes4",
					"name": "interfaceId",
					"type": "bytes4"
				}
			],
			"name": "supportsInterface",
			"outputs": [
				{
					"internalType": "bool",
					"name": "",
					"type": "bool"
				}
			],
			"stateMutability": "view",
			"type": "function"
		},
		{
			"inputs": [],
			"name": "symbol",
			"outputs": [
				{
					"internalType": "string",
					"name": "",
					"type": "string"
				}
			],
			"stateMutability": "view",
			"type": "function"
		},
		{
			"inputs": [
				{
					"internalType": "uint256",
					"name": "_tokenId",
					"type": "uint256"
				}
			],
			"name": "tokenURI",
			"outputs": [
				{
					"internalType": "string",
					"name": "",
					"type": "string"
				}
			],
			"stateMutability": "view",
			"type": "function"
		},
		{
			"inputs": [],
			"name": "totalSupply",
			"outputs": [
				{
					"internalType": "uint256",
					"name": "",
					"type": "uint256"
				}
			],
			"stateMutability": "view",
			"type": "function"
		},
		{
			"inputs": [
				{
					"internalType": "address",
					"name": "from",
					"type": "address"
				},
				{
					"internalType": "address",
					"name": "to",
					"type": "address"
				},
				{
					"internalType": "uint256",
					"name": "tokenId",
					"type": "uint256"
				}
			],
			"name": "transferFrom",
			"outputs": [],
			"stateMutability": "nonpayable",
			"type": "function"
		},
		{
			"inputs": [
				{
					"internalType": "address",
					"name": "newOwner",
					"type": "address"
				}
			],
			"name": "transferOwnership",
			"outputs": [],
			"stateMutability": "nonpayable",
			"type": "function"
		},
		{
			"inputs": [],
			"name": "uriPrefix",
			"outputs": [
				{
					"internalType": "string",
					"name": "",
					"type": "string"
				}
			],
			"stateMutability": "view",
			"type": "function"
		},
		{
			"inputs": [],
			"name": "uriSuffix",
			"outputs": [
				{
					"internalType": "string",
					"name": "",
					"type": "string"
				}
			],
			"stateMutability": "view",
			"type": "function"
		},
		{
			"inputs": [
				{
					"internalType": "address",
					"name": "",
					"type": "address"
				}
			],
			"name": "whitelistClaimed",
			"outputs": [
				{
					"internalType": "bool",
					"name": "",
					"type": "bool"
				}
			],
			"stateMutability": "view",
			"type": "function"
		},
		{
			"inputs": [
				{
					"internalType": "uint256",
					"name": "_mintAmount",
					"type": "uint256"
				},
				{
					"internalType": "bytes32[]",
					"name": "_merkleProof",
					"type": "bytes32[]"
				}
			],
			"name": "whitelistMint",
			"outputs": [],
			"stateMutability": "payable",
			"type": "function"
		},
		{
			"inputs": [],
			"name": "whitelistMintEnabled",
			"outputs": [
				{
					"internalType": "bool",
					"name": "",
					"type": "bool"
				}
			],
			"stateMutability": "view",
			"type": "function"
		},
		{
			"inputs": [],
			"name": "withdraw",
			"outputs": [],
			"stateMutability": "nonpayable",
			"type": "function"
		}
	],
	"bytecode": "0x608060405260405180602001604052806000815250600b90805190602001906200002b92919062000277565b506040518060400160405280600581526020017f2e6a736f6e000000000000000000000000000000000000000000000000000000815250600c90805190602001906200007992919062000277565b506001601160006101000a81548160ff0219169083151502179055506000601160016101000a81548160ff0219169083151502179055506000601160026101000a81548160ff021916908315150217905550348015620000d857600080fd5b5060405162004c3038038062004c308339818101604052810190620000fe9190620004ff565b858581600290805190602001906200011892919062000277565b5080600390805190602001906200013192919062000277565b5062000142620001a460201b60201c565b60008190555050506200016a6200015e620001a960201b60201c565b620001b160201b60201c565b83600e8190555082600f819055508160108190555080600d90805190602001906200019792919062000277565b505050505050506200065d565b600090565b600033905090565b6000600860009054906101000a900473ffffffffffffffffffffffffffffffffffffffff16905081600860006101000a81548173ffffffffffffffffffffffffffffffffffffffff021916908373ffffffffffffffffffffffffffffffffffffffff1602179055508173ffffffffffffffffffffffffffffffffffffffff168173ffffffffffffffffffffffffffffffffffffffff167f8be0079c531659141344cd1fd0a4f28419497f9722a3daafe3b4186f6b6457e060405160405180910390a35050565b828054620002859062000627565b90600052602060002090601f016020900481019282620002a95760008555620002f5565b82601f10620002c457805160ff1916838001178555620002f5565b82800160010185558215620002f5579182015b82811115620002f4578251825591602001919060010190620002d7565b5b50905062000304919062000308565b5090565b5b808211156200032357600081600090555060010162000309565b5090565b6000604051905090565b600080fd5b600080fd5b600080fd5b600080fd5b6000601f19601f8301169050919050565b7f4e487b7100000000000000000000000000000000000000000000000000000000600052604160045260246000fd5b620003908262000345565b810181811067ffffffffffffffff82111715620003b257620003b162000356565b5b80604052505050565b6000620003c762000327565b9050620003d5828262000385565b919050565b600067ffffffffffffffff821115620003f857620003f762000356565b5b620004038262000345565b9050602081019050919050565b60005b838110156200043057808201518184015260208101905062000413565b8381111562000440576000848401525b50505050565b60006200045d6200045784620003da565b620003bb565b9050828152602081018484840111156200047c576200047b62000340565b5b6200048984828562000410565b509392505050565b600082601f830112620004a957620004a86200033b565b5b8151620004bb84826020860162000446565b91505092915050565b6000819050919050565b620004d981620004c4565b8114620004e557600080fd5b50565b600081519050620004f981620004ce565b92915050565b60008060008060008060c087890312156200051f576200051e62000331565b5b600087015167ffffffffffffffff81111562000540576200053f62000336565b5b6200054e89828a0162000491565b965050602087015167ffffffffffffffff81111562000572576200057162000336565b5b6200058089828a0162000491565b95505060406200059389828a01620004e8565b9450506060620005a689828a01620004e8565b9350506080620005b989828a01620004e8565b92505060a087015167ffffffffffffffff811115620005dd57620005dc62000336565b5b620005eb89828a0162000491565b9150509295509295509295565b7f4e487b7100000000000000000000000000000000000000000000000000000000600052602260045260246000fd5b600060028204905060018216806200064057607f821691505b60208210811415620006575762000656620005f8565b5b50919050565b6145c3806200066d6000396000f3fe60806040526004361061023b5760003560e01c806370a082311161012e578063b071401b116100ab578063d5abeb011161006f578063d5abeb011461081b578063db4bec4414610846578063e0a8085314610883578063e985e9c5146108ac578063f2fde38b146108e95761023b565b8063b071401b14610747578063b767a09814610770578063b88d4fde14610799578063c87b56dd146107c2578063d2cab056146107ff5761023b565b806394354fd0116100f257806394354fd01461068157806395d89b41146106ac578063a0712d68146106d7578063a22cb465146106f3578063a45ba8e71461071c5761023b565b806370a08231146105b0578063715018a6146105ed5780637cb64759146106045780637ec4a6591461062d5780638da5cb5b146106565761023b565b80633ccfd60b116101bc5780635503a0e8116101805780635503a0e8146104c75780635c975abb146104f257806362b99ad41461051d5780636352211e146105485780636caede3d146105855761023b565b80633ccfd60b1461040a57806342842e0e1461042157806344a0d68a1461044a5780634fdd43cb14610473578063518302271461049c5761023b565b806316ba10e01161020357806316ba10e01461033957806316c38b3c1461036257806318160ddd1461038b57806323b872dd146103b65780632eb4a7ab146103df5761023b565b806301ffc9a71461024057806306fdde031461027d578063081812fc146102a8578063095ea7b3146102e557806313faede61461030e575b600080fd5b34801561024c57600080fd5b50610267600480360381019061026291906132f3565b610912565b604051610274919061333b565b60405180910390f35b34801561028957600080fd5b506102926109f4565b60405161029f91906133ef565b60405180910390f35b3480156102b457600080fd5b506102cf60048036038101906102ca9190613447565b610a86565b6040516102dc91906134b5565b60405180910390f35b3480156102f157600080fd5b5061030c600480360381019061030791906134fc565b610b02565b005b34801561031a57600080fd5b50610323610c0d565b604051610330919061354b565b60405180910390f35b34801561034557600080fd5b50610360600480360381019061035b919061369b565b610c13565b005b34801561036e57600080fd5b5061038960048036038101906103849190613710565b610ca9565b005b34801561039757600080fd5b506103a0610d42565b6040516103ad919061354b565b60405180910390f35b3480156103c257600080fd5b506103dd60048036038101906103d8919061373d565b610d59565b005b3480156103eb57600080fd5b506103f4610d69565b60405161040191906137a9565b60405180910390f35b34801561041657600080fd5b5061041f610d6f565b005b34801561042d57600080fd5b506104486004803603810190610443919061373d565b610e6b565b005b34801561045657600080fd5b50610471600480360381019061046c9190613447565b610e8b565b005b34801561047f57600080fd5b5061049a6004803603810190610495919061369b565b610f11565b005b3480156104a857600080fd5b506104b1610fa7565b6040516104be919061333b565b60405180910390f35b3480156104d357600080fd5b506104dc610fba565b6040516104e991906133ef565b60405180910390f35b3480156104fe57600080fd5b50610507611048565b604051610514919061333b565b60405180910390f35b34801561052957600080fd5b5061053261105b565b60405161053f91906133ef565b60405180910390f35b34801561055457600080fd5b5061056f600480360381019061056a9190613447565b6110e9565b60405161057c91906134b5565b60405180910390f35b34801561059157600080fd5b5061059a6110ff565b6040516105a7919061333b565b60405180910390f35b3480156105bc57600080fd5b506105d760048036038101906105d291906137c4565b611112565b6040516105e4919061354b565b60405180910390f35b3480156105f957600080fd5b506106026111e2565b005b34801561061057600080fd5b5061062b6004803603810190610626919061381d565b61126a565b005b34801561063957600080fd5b50610654600480360381019061064f919061369b565b6112f0565b005b34801561066257600080fd5b5061066b611386565b60405161067891906134b5565b60405180910390f35b34801561068d57600080fd5b506106966113b0565b6040516106a3919061354b565b60405180910390f35b3480156106b857600080fd5b506106c16113b6565b6040516106ce91906133ef565b60405180910390f35b6106f160048036038101906106ec9190613447565b611448565b005b3480156106ff57600080fd5b5061071a6004803603810190610715919061384a565b6115df565b005b34801561072857600080fd5b50610731611757565b60405161073e91906133ef565b60405180910390f35b34801561075357600080fd5b5061076e60048036038101906107699190613447565b6117e5565b005b34801561077c57600080fd5b5061079760048036038101906107929190613710565b61186b565b005b3480156107a557600080fd5b506107c060048036038101906107bb919061392b565b611904565b005b3480156107ce57600080fd5b506107e960048036038101906107e49190613447565b611980565b6040516107f691906133ef565b60405180910390f35b61081960048036038101906108149190613a0e565b611aa6565b005b34801561082757600080fd5b50610830611df1565b60405161083d919061354b565b60405180910390f35b34801561085257600080fd5b5061086d600480360381019061086891906137c4565b611df7565b60405161087a919061333b565b60405180910390f35b34801561088f57600080fd5b506108aa60048036038101906108a59190613710565b611e17565b005b3480156108b857600080fd5b506108d360048036038101906108ce9190613a6e565b611eb0565b6040516108e0919061333b565b60405180910390f35b3480156108f557600080fd5b50610910600480360381019061090b91906137c4565b611f44565b005b60007f80ac58cd000000000000000000000000000000000000000000000000000000007bffffffffffffffffffffffffffffffffffffffffffffffffffffffff1916827bffffffffffffffffffffffffffffffffffffffffffffffffffffffff191614806109dd57507f5b5e139f000000000000000000000000000000000000000000000000000000007bffffffffffffffffffffffffffffffffffffffffffffffffffffffff1916827bffffffffffffffffffffffffffffffffffffffffffffffffffffffff1916145b806109ed57506109ec8261203c565b5b9050919050565b606060028054610a0390613add565b80601f0160208091040260200160405190810160405280929190818152602001828054610a2f90613add565b8015610a7c5780601f10610a5157610100808354040283529160200191610a7c565b820191906000526020600020905b815481529060010190602001808311610a5f57829003601f168201915b5050505050905090565b6000610a91826120a6565b610ac7576040517fcf4700e400000000000000000000000000000000000000000000000000000000815260040160405180910390fd5b6006600083815260200190815260200160002060009054906101000a900473ffffffffffffffffffffffffffffffffffffffff169050919050565b6000610b0d826110e9565b90508073ffffffffffffffffffffffffffffffffffffffff168373ffffffffffffffffffffffffffffffffffffffff161415610b75576040517f943f7b8c00000000000000000000000000000000000000000000000000000000815260040160405180910390fd5b8073ffffffffffffffffffffffffffffffffffffffff16610b946120f4565b73ffffffffffffffffffffffffffffffffffffffff1614158015610bc65750610bc481610bbf6120f4565b611eb0565b155b15610bfd576040517fcfb3b94200000000000000000000000000000000000000000000000000000000815260040160405180910390fd5b610c088383836120fc565b505050565b600e5481565b610c1b6120f4565b73ffffffffffffffffffffffffffffffffffffffff16610c39611386565b73ffffffffffffffffffffffffffffffffffffffff1614610c8f576040517f08c379a0000000000000000000000000000000000000000000000000000000008152600401610c8690613b5b565b60405180910390fd5b80600c9080519060200190610ca59291906131a1565b5050565b610cb16120f4565b73ffffffffffffffffffffffffffffffffffffffff16610ccf611386565b73ffffffffffffffffffffffffffffffffffffffff1614610d25576040517f08c379a0000000000000000000000000000000000000000000000000000000008152600401610d1c90613b5b565b60405180910390fd5b80601160006101000a81548160ff02191690831515021790555050565b6000610d4c6121ae565b6001546000540303905090565b610d648383836121b3565b505050565b60095481565b610d776120f4565b73ffffffffffffffffffffffffffffffffffffffff16610d95611386565b73ffffffffffffffffffffffffffffffffffffffff1614610deb576040517f08c379a0000000000000000000000000000000000000000000000000000000008152600401610de290613b5b565b60405180910390fd5b6000610df5611386565b73ffffffffffffffffffffffffffffffffffffffff1647604051610e1890613bac565b60006040518083038185875af1925050503d8060008114610e55576040519150601f19603f3d011682016040523d82523d6000602084013e610e5a565b606091505b5050905080610e6857600080fd5b50565b610e8683838360405180602001604052806000815250611904565b505050565b610e936120f4565b73ffffffffffffffffffffffffffffffffffffffff16610eb1611386565b73ffffffffffffffffffffffffffffffffffffffff1614610f07576040517f08c379a0000000000000000000000000000000000000000000000000000000008152600401610efe90613b5b565b60405180910390fd5b80600e8190555050565b610f196120f4565b73ffffffffffffffffffffffffffffffffffffffff16610f37611386565b73ffffffffffffffffffffffffffffffffffffffff1614610f8d576040517f08c379a0000000000000000000000000000000000000000000000000000000008152600401610f8490613b5b565b60405180910390fd5b80600d9080519060200190610fa39291906131a1565b5050565b601160019054906101000a900460ff1681565b600c8054610fc790613add565b80601f0160208091040260200160405190810160405280929190818152602001828054610ff390613add565b80156110405780601f1061101557610100808354040283529160200191611040565b820191906000526020600020905b81548152906001019060200180831161102357829003601f168201915b505050505081565b601160009054906101000a900460ff1681565b600b805461106890613add565b80601f016020809104026020016040519081016040528092919081815260200182805461109490613add565b80156110e15780601f106110b6576101008083540402835291602001916110e1565b820191906000526020600020905b8154815290600101906020018083116110c457829003601f168201915b505050505081565b60006110f4826126a4565b600001519050919050565b601160029054906101000a900460ff1681565b60008073ffffffffffffffffffffffffffffffffffffffff168273ffffffffffffffffffffffffffffffffffffffff16141561117a576040517f8f4eb60400000000000000000000000000000000000000000000000000000000815260040160405180910390fd5b600560008373ffffffffffffffffffffffffffffffffffffffff1673ffffffffffffffffffffffffffffffffffffffff16815260200190815260200160002060000160009054906101000a900467ffffffffffffffff1667ffffffffffffffff169050919050565b6111ea6120f4565b73ffffffffffffffffffffffffffffffffffffffff16611208611386565b73ffffffffffffffffffffffffffffffffffffffff161461125e576040517f08c379a000000000000000000000000000000000000000000000000000000000815260040161125590613b5b565b60405180910390fd5b6112686000612933565b565b6112726120f4565b73ffffffffffffffffffffffffffffffffffffffff16611290611386565b73ffffffffffffffffffffffffffffffffffffffff16146112e6576040517f08c379a00000000000000000000000000000000000000000000000000000000081526004016112dd90613b5b565b60405180910390fd5b8060098190555050565b6112f86120f4565b73ffffffffffffffffffffffffffffffffffffffff16611316611386565b73ffffffffffffffffffffffffffffffffffffffff161461136c576040517f08c379a000000000000000000000000000000000000000000000000000000000815260040161136390613b5b565b60405180910390fd5b80600b90805190602001906113829291906131a1565b5050565b6000600860009054906101000a900473ffffffffffffffffffffffffffffffffffffffff16905090565b60105481565b6060600380546113c590613add565b80601f01602080910402602001604051908101604052809291908181526020018280546113f190613add565b801561143e5780601f106114135761010080835404028352916020019161143e565b820191906000526020600020905b81548152906001019060200180831161142157829003601f168201915b5050505050905090565b806000811161148c576040517f08c379a000000000000000000000000000000000000000000000000000000000815260040161148390613c0d565b60405180910390fd5b6010548111156114d1576040517f08c379a00000000000000000000000000000000000000000000000000000000081526004016114c890613c9f565b60405180910390fd5b600f54816114dd610d42565b6114e79190613cee565b1115611528576040517f08c379a000000000000000000000000000000000000000000000000000000000815260040161151f90613d90565b60405180910390fd5b8180600e546115379190613db0565b341015611579576040517f08c379a000000000000000000000000000000000000000000000000000000000815260040161157090613e56565b60405180910390fd5b601160009054906101000a900460ff16156115c9576040517f08c379a00000000000000000000000000000000000000000000000000000000081526004016115c090613ee8565b60405180910390fd5b6115da6115d46120f4565b846129f9565b505050565b6115e76120f4565b73ffffffffffffffffffffffffffffffffffffffff168273ffffffffffffffffffffffffffffffffffffffff16141561164c576040517fb06307db00000000000000000000000000000000000000000000000000000000815260040160405180910390fd5b80600760006116596120f4565b73ffffffffffffffffffffffffffffffffffffffff1673ffffffffffffffffffffffffffffffffffffffff16815260200190815260200160002060008473ffffffffffffffffffffffffffffffffffffffff1673ffffffffffffffffffffffffffffffffffffffff16815260200190815260200160002060006101000a81548160ff0219169083151502179055508173ffffffffffffffffffffffffffffffffffffffff166117066120f4565b73ffffffffffffffffffffffffffffffffffffffff167f17307eab39ab6107e8899845ad3d59bd9653f200f220920489ca2b5937696c318360405161174b919061333b565b60405180910390a35050565b600d805461176490613add565b80601f016020809104026020016040519081016040528092919081815260200182805461179090613add565b80156117dd5780601f106117b2576101008083540402835291602001916117dd565b820191906000526020600020905b8154815290600101906020018083116117c057829003601f168201915b505050505081565b6117ed6120f4565b73ffffffffffffffffffffffffffffffffffffffff1661180b611386565b73ffffffffffffffffffffffffffffffffffffffff1614611861576040517f08c379a000000000000000000000000000000000000000000000000000000000815260040161185890613b5b565b60405180910390fd5b8060108190555050565b6118736120f4565b73ffffffffffffffffffffffffffffffffffffffff16611891611386565b73ffffffffffffffffffffffffffffffffffffffff16146118e7576040517f08c379a00000000000000000000000000000000000000000000000000000000081526004016118de90613b5b565b60405180910390fd5b80601160026101000a81548160ff02191690831515021790555050565b61190f8484846121b3565b61192e8373ffffffffffffffffffffffffffffffffffffffff16612a17565b8015611943575061194184848484612a2a565b155b1561197a576040517fd1a57ed600000000000000000000000000000000000000000000000000000000815260040160405180910390fd5b50505050565b606061198b826120a6565b6119ca576040517f08c379a00000000000000000000000000000000000000000000000000000000081526004016119c190613f7a565b60405180910390fd5b601160019054906101000a900460ff16611a7057600d80546119eb90613add565b80601f0160208091040260200160405190810160405280929190818152602001828054611a1790613add565b8015611a645780601f10611a3957610100808354040283529160200191611a64565b820191906000526020600020905b815481529060010190602001808311611a4757829003601f168201915b50505050509050611aa1565b600b611a7b83612b8a565b600c604051602001611a8f9392919061406a565b60405160208183030381529060405290505b919050565b8260008111611aea576040517f08c379a0000000000000000000000000000000000000000000000000000000008152600401611ae190613c0d565b60405180910390fd5b601054811115611b2f576040517f08c379a0000000000000000000000000000000000000000000000000000000008152600401611b2690613c9f565b60405180910390fd5b600f5481611b3b610d42565b611b459190613cee565b1115611b86576040517f08c379a0000000000000000000000000000000000000000000000000000000008152600401611b7d90613d90565b60405180910390fd5b8380600e54611b959190613db0565b341015611bd7576040517f08c379a0000000000000000000000000000000000000000000000000000000008152600401611bce90613e56565b60405180910390fd5b601160029054906101000a900460ff16611c26576040517f08c379a0000000000000000000000000000000000000000000000000000000008152600401611c1d9061410d565b60405180910390fd5b600a6000611c326120f4565b73ffffffffffffffffffffffffffffffffffffffff1673ffffffffffffffffffffffffffffffffffffffff16815260200190815260200160002060009054906101000a900460ff1615611cba576040517f08c379a0000000000000000000000000000000000000000000000000000000008152600401611cb19061419f565b60405180910390fd5b6000611cc46120f4565b604051602001611cd49190614207565b604051602081830303815290604052805190602001209050611d3a858580806020026020016040519081016040528093929190818152602001838360200280828437600081840152601f19601f8201169050808301925050505050505060095483612ceb565b611d79576040517f08c379a0000000000000000000000000000000000000000000000000000000008152600401611d709061426e565b60405180910390fd5b6001600a6000611d876120f4565b73ffffffffffffffffffffffffffffffffffffffff1673ffffffffffffffffffffffffffffffffffffffff16815260200190815260200160002060006101000a81548160ff021916908315150217905550611de9611de36120f4565b876129f9565b505050505050565b600f5481565b600a6020528060005260406000206000915054906101000a900460ff1681565b611e1f6120f4565b73ffffffffffffffffffffffffffffffffffffffff16611e3d611386565b73ffffffffffffffffffffffffffffffffffffffff1614611e93576040517f08c379a0000000000000000000000000000000000000000000000000000000008152600401611e8a90613b5b565b60405180910390fd5b80601160016101000a81548160ff02191690831515021790555050565b6000600760008473ffffffffffffffffffffffffffffffffffffffff1673ffffffffffffffffffffffffffffffffffffffff16815260200190815260200160002060008373ffffffffffffffffffffffffffffffffffffffff1673ffffffffffffffffffffffffffffffffffffffff16815260200190815260200160002060009054906101000a900460ff16905092915050565b611f4c6120f4565b73ffffffffffffffffffffffffffffffffffffffff16611f6a611386565b73ffffffffffffffffffffffffffffffffffffffff1614611fc0576040517f08c379a0000000000000000000000000000000000000000000000000000000008152600401611fb790613b5b565b60405180910390fd5b600073ffffffffffffffffffffffffffffffffffffffff168173ffffffffffffffffffffffffffffffffffffffff161415612030576040517f08c379a000000000000000000000000000000000000000000000000000000000815260040161202790614300565b60405180910390fd5b61203981612933565b50565b60007f01ffc9a7000000000000000000000000000000000000000000000000000000007bffffffffffffffffffffffffffffffffffffffffffffffffffffffff1916827bffffffffffffffffffffffffffffffffffffffffffffffffffffffff1916149050919050565b6000816120b16121ae565b111580156120c0575060005482105b80156120ed575060046000838152602001908152602001600020600001601c9054906101000a900460ff16155b9050919050565b600033905090565b826006600084815260200190815260200160002060006101000a81548173ffffffffffffffffffffffffffffffffffffffff021916908373ffffffffffffffffffffffffffffffffffffffff160217905550818373ffffffffffffffffffffffffffffffffffffffff168273ffffffffffffffffffffffffffffffffffffffff167f8c5be1e5ebec7d5bd14f71427d1e84f3dd0314c0f7b2291e5b200ac8c7c3b92560405160405180910390a4505050565b600090565b60006121be826126a4565b90506000816000015173ffffffffffffffffffffffffffffffffffffffff166121e56120f4565b73ffffffffffffffffffffffffffffffffffffffff161480612218575061221782600001516122126120f4565b611eb0565b5b8061225d57506122266120f4565b73ffffffffffffffffffffffffffffffffffffffff1661224584610a86565b73ffffffffffffffffffffffffffffffffffffffff16145b905080612296576040517f59c896be00000000000000000000000000000000000000000000000000000000815260040160405180910390fd5b8473ffffffffffffffffffffffffffffffffffffffff16826000015173ffffffffffffffffffffffffffffffffffffffff16146122ff576040517fa114810000000000000000000000000000000000000000000000000000000000815260040160405180910390fd5b600073ffffffffffffffffffffffffffffffffffffffff168473ffffffffffffffffffffffffffffffffffffffff161415612366576040517fea553b3400000000000000000000000000000000000000000000000000000000815260040160405180910390fd5b6123738585856001612d02565b61238360008484600001516120fc565b6001600560008773ffffffffffffffffffffffffffffffffffffffff1673ffffffffffffffffffffffffffffffffffffffff16815260200190815260200160002060000160008282829054906101000a900467ffffffffffffffff160392506101000a81548167ffffffffffffffff021916908367ffffffffffffffff1602179055506001600560008673ffffffffffffffffffffffffffffffffffffffff1673ffffffffffffffffffffffffffffffffffffffff16815260200190815260200160002060000160008282829054906101000a900467ffffffffffffffff160192506101000a81548167ffffffffffffffff021916908367ffffffffffffffff160217905550836004600085815260200190815260200160002060000160006101000a81548173ffffffffffffffffffffffffffffffffffffffff021916908373ffffffffffffffffffffffffffffffffffffffff160217905550426004600085815260200190815260200160002060000160146101000a81548167ffffffffffffffff021916908367ffffffffffffffff1602179055506000600184019050600073ffffffffffffffffffffffffffffffffffffffff166004600083815260200190815260200160002060000160009054906101000a900473ffffffffffffffffffffffffffffffffffffffff1673ffffffffffffffffffffffffffffffffffffffff161415612634576000548110156126335782600001516004600083815260200190815260200160002060000160006101000a81548173ffffffffffffffffffffffffffffffffffffffff021916908373ffffffffffffffffffffffffffffffffffffffff16021790555082602001516004600083815260200190815260200160002060000160146101000a81548167ffffffffffffffff021916908367ffffffffffffffff1602179055505b5b50828473ffffffffffffffffffffffffffffffffffffffff168673ffffffffffffffffffffffffffffffffffffffff167fddf252ad1be2c89b69c2b068fc378daa952ba7f163c4a11628f55a4df523b3ef60405160405180910390a461269d8585856001612d08565b5050505050565b6126ac613227565b6000829050806126ba6121ae565b111580156126c9575060005481105b156128fc576000600460008381526020019081526020016000206040518060600160405290816000820160009054906101000a900473ffffffffffffffffffffffffffffffffffffffff1673ffffffffffffffffffffffffffffffffffffffff1673ffffffffffffffffffffffffffffffffffffffff1681526020016000820160149054906101000a900467ffffffffffffffff1667ffffffffffffffff1667ffffffffffffffff16815260200160008201601c9054906101000a900460ff161515151581525050905080604001516128fa57600073ffffffffffffffffffffffffffffffffffffffff16816000015173ffffffffffffffffffffffffffffffffffffffff16146127de57809250505061292e565b5b6001156128f957818060019003925050600460008381526020019081526020016000206040518060600160405290816000820160009054906101000a900473ffffffffffffffffffffffffffffffffffffffff1673ffffffffffffffffffffffffffffffffffffffff1673ffffffffffffffffffffffffffffffffffffffff1681526020016000820160149054906101000a900467ffffffffffffffff1667ffffffffffffffff1667ffffffffffffffff16815260200160008201601c9054906101000a900460ff1615151515815250509050600073ffffffffffffffffffffffffffffffffffffffff16816000015173ffffffffffffffffffffffffffffffffffffffff16146128f457809250505061292e565b6127df565b5b505b6040517fdf2d9b4200000000000000000000000000000000000000000000000000000000815260040160405180910390fd5b919050565b6000600860009054906101000a900473ffffffffffffffffffffffffffffffffffffffff16905081600860006101000a81548173ffffffffffffffffffffffffffffffffffffffff021916908373ffffffffffffffffffffffffffffffffffffffff1602179055508173ffffffffffffffffffffffffffffffffffffffff168173ffffffffffffffffffffffffffffffffffffffff167f8be0079c531659141344cd1fd0a4f28419497f9722a3daafe3b4186f6b6457e060405160405180910390a35050565b612a13828260405180602001604052806000815250612d0e565b5050565b600080823b905060008111915050919050565b60008373ffffffffffffffffffffffffffffffffffffffff1663150b7a02612a506120f4565b8786866040518563ffffffff1660e01b8152600401612a729493929190614375565b602060405180830381600087803b158015612a8c57600080fd5b505af1925050508015612abd57506040513d601f19601f82011682018060405250810190612aba91906143d6565b60015b612b37573d8060008114612aed576040519150601f19603f3d011682016040523d82523d6000602084013e612af2565b606091505b50600081511415612b2f576040517fd1a57ed600000000000000000000000000000000000000000000000000000000815260040160405180910390fd5b805181602001fd5b63150b7a0260e01b7bffffffffffffffffffffffffffffffffffffffffffffffffffffffff1916817bffffffffffffffffffffffffffffffffffffffffffffffffffffffff191614915050949350505050565b60606000821415612bd2576040518060400160405280600181526020017f30000000000000000000000000000000000000000000000000000000000000008152509050612ce6565b600082905060005b60008214612c04578080612bed90614403565b915050600a82612bfd919061447b565b9150612bda565b60008167ffffffffffffffff811115612c2057612c1f613570565b5b6040519080825280601f01601f191660200182016040528015612c525781602001600182028036833780820191505090505b5090505b60008514612cdf57600182612c6b91906144ac565b9150600a85612c7a91906144e0565b6030612c869190613cee565b60f81b818381518110612c9c57612c9b614511565b5b60200101907effffffffffffffffffffffffffffffffffffffffffffffffffffffffffffff1916908160001a905350600a85612cd8919061447b565b9450612c56565b8093505050505b919050565b600082612cf88584612d20565b1490509392505050565b50505050565b50505050565b612d1b8383836001612dd3565b505050565b60008082905060005b8451811015612dc8576000858281518110612d4757612d46614511565b5b60200260200101519050808311612d88578281604051602001612d6b929190614561565b604051602081830303815290604052805190602001209250612db4565b8083604051602001612d9b929190614561565b6040516020818303038152906040528051906020012092505b508080612dc090614403565b915050612d29565b508091505092915050565b600080549050600073ffffffffffffffffffffffffffffffffffffffff168573ffffffffffffffffffffffffffffffffffffffff161415612e40576040517f2e07630000000000000000000000000000000000000000000000000000000000815260040160405180910390fd5b6000841415612e7b576040517fb562e8dd00000000000000000000000000000000000000000000000000000000815260040160405180910390fd5b612e886000868387612d02565b83600560008773ffffffffffffffffffffffffffffffffffffffff1673ffffffffffffffffffffffffffffffffffffffff16815260200190815260200160002060000160008282829054906101000a900467ffffffffffffffff160192506101000a81548167ffffffffffffffff021916908367ffffffffffffffff16021790555083600560008773ffffffffffffffffffffffffffffffffffffffff1673ffffffffffffffffffffffffffffffffffffffff16815260200190815260200160002060000160088282829054906101000a900467ffffffffffffffff160192506101000a81548167ffffffffffffffff021916908367ffffffffffffffff160217905550846004600083815260200190815260200160002060000160006101000a81548173ffffffffffffffffffffffffffffffffffffffff021916908373ffffffffffffffffffffffffffffffffffffffff160217905550426004600083815260200190815260200160002060000160146101000a81548167ffffffffffffffff021916908367ffffffffffffffff16021790555060008190506000858201905083801561305257506130518773ffffffffffffffffffffffffffffffffffffffff16612a17565b5b15613118575b818773ffffffffffffffffffffffffffffffffffffffff16600073ffffffffffffffffffffffffffffffffffffffff167fddf252ad1be2c89b69c2b068fc378daa952ba7f163c4a11628f55a4df523b3ef60405160405180910390a46130c76000888480600101955088612a2a565b6130fd576040517fd1a57ed600000000000000000000000000000000000000000000000000000000815260040160405180910390fd5b8082141561305857826000541461311357600080fd5b613184565b5b818060010192508773ffffffffffffffffffffffffffffffffffffffff16600073ffffffffffffffffffffffffffffffffffffffff167fddf252ad1be2c89b69c2b068fc378daa952ba7f163c4a11628f55a4df523b3ef60405160405180910390a480821415613119575b81600081905550505061319a6000868387612d08565b5050505050565b8280546131ad90613add565b90600052602060002090601f0160209004810192826131cf5760008555613216565b82601f106131e857805160ff1916838001178555613216565b82800160010185558215613216579182015b828111156132155782518255916020019190600101906131fa565b5b509050613223919061326a565b5090565b6040518060600160405280600073ffffffffffffffffffffffffffffffffffffffff168152602001600067ffffffffffffffff1681526020016000151581525090565b5b8082111561328357600081600090555060010161326b565b5090565b6000604051905090565b600080fd5b600080fd5b60007fffffffff0000000000000000000000000000000000000000000000000000000082169050919050565b6132d08161329b565b81146132db57600080fd5b50565b6000813590506132ed816132c7565b92915050565b60006020828403121561330957613308613291565b5b6000613317848285016132de565b91505092915050565b60008115159050919050565b61333581613320565b82525050565b6000602082019050613350600083018461332c565b92915050565b600081519050919050565b600082825260208201905092915050565b60005b83811015613390578082015181840152602081019050613375565b8381111561339f576000848401525b50505050565b6000601f19601f8301169050919050565b60006133c182613356565b6133cb8185613361565b93506133db818560208601613372565b6133e4816133a5565b840191505092915050565b6000602082019050818103600083015261340981846133b6565b905092915050565b6000819050919050565b61342481613411565b811461342f57600080fd5b50565b6000813590506134418161341b565b92915050565b60006020828403121561345d5761345c613291565b5b600061346b84828501613432565b91505092915050565b600073ffffffffffffffffffffffffffffffffffffffff82169050919050565b600061349f82613474565b9050919050565b6134af81613494565b82525050565b60006020820190506134ca60008301846134a6565b92915050565b6134d981613494565b81146134e457600080fd5b50565b6000813590506134f6816134d0565b92915050565b6000806040838503121561351357613512613291565b5b6000613521858286016134e7565b925050602061353285828601613432565b9150509250929050565b61354581613411565b82525050565b6000602082019050613560600083018461353c565b92915050565b600080fd5b600080fd5b7f4e487b7100000000000000000000000000000000000000000000000000000000600052604160045260246000fd5b6135a8826133a5565b810181811067ffffffffffffffff821117156135c7576135c6613570565b5b80604052505050565b60006135da613287565b90506135e6828261359f565b919050565b600067ffffffffffffffff82111561360657613605613570565b5b61360f826133a5565b9050602081019050919050565b82818337600083830152505050565b600061363e613639846135eb565b6135d0565b90508281526020810184848401111561365a5761365961356b565b5b61366584828561361c565b509392505050565b600082601f83011261368257613681613566565b5b813561369284826020860161362b565b91505092915050565b6000602082840312156136b1576136b0613291565b5b600082013567ffffffffffffffff8111156136cf576136ce613296565b5b6136db8482850161366d565b91505092915050565b6136ed81613320565b81146136f857600080fd5b50565b60008135905061370a816136e4565b92915050565b60006020828403121561372657613725613291565b5b6000613734848285016136fb565b91505092915050565b60008060006060848603121561375657613755613291565b5b6000613764868287016134e7565b9350506020613775868287016134e7565b925050604061378686828701613432565b9150509250925092565b6000819050919050565b6137a381613790565b82525050565b60006020820190506137be600083018461379a565b92915050565b6000602082840312156137da576137d9613291565b5b60006137e8848285016134e7565b91505092915050565b6137fa81613790565b811461380557600080fd5b50565b600081359050613817816137f1565b92915050565b60006020828403121561383357613832613291565b5b600061384184828501613808565b91505092915050565b6000806040838503121561386157613860613291565b5b600061386f858286016134e7565b9250506020613880858286016136fb565b9150509250929050565b600067ffffffffffffffff8211156138a5576138a4613570565b5b6138ae826133a5565b9050602081019050919050565b60006138ce6138c98461388a565b6135d0565b9050828152602081018484840111156138ea576138e961356b565b5b6138f584828561361c565b509392505050565b600082601f83011261391257613911613566565b5b81356139228482602086016138bb565b91505092915050565b6000806000806080858703121561394557613944613291565b5b6000613953878288016134e7565b9450506020613964878288016134e7565b935050604061397587828801613432565b925050606085013567ffffffffffffffff81111561399657613995613296565b5b6139a2878288016138fd565b91505092959194509250565b600080fd5b600080fd5b60008083601f8401126139ce576139cd613566565b5b8235905067ffffffffffffffff8111156139eb576139ea6139ae565b5b602083019150836020820283011115613a0757613a066139b3565b5b9250929050565b600080600060408486031215613a2757613a26613291565b5b6000613a3586828701613432565b935050602084013567ffffffffffffffff811115613a5657613a55613296565b5b613a62868287016139b8565b92509250509250925092565b60008060408385031215613a8557613a84613291565b5b6000613a93858286016134e7565b9250506020613aa4858286016134e7565b9150509250929050565b7f4e487b7100000000000000000000000000000000000000000000000000000000600052602260045260246000fd5b60006002820490506001821680613af557607f821691505b60208210811415613b0957613b08613aae565b5b50919050565b7f4f776e61626c653a2063616c6c6572206973206e6f7420746865206f776e6572600082015250565b6000613b45602083613361565b9150613b5082613b0f565b602082019050919050565b60006020820190508181036000830152613b7481613b38565b9050919050565b600081905092915050565b50565b6000613b96600083613b7b565b9150613ba182613b86565b600082019050919050565b6000613bb782613b89565b9150819050919050565b7f536b6174657250756e6b733a20496e76616c6964206d696e7420616d6f756e74600082015250565b6000613bf7602083613361565b9150613c0282613bc1565b602082019050919050565b60006020820190508181036000830152613c2681613bea565b9050919050565b7f536b6174657250756e6b733a204d6178206d696e7420616d6f756e742070657260008201527f207472616e73616374696f6e2065786365656465640000000000000000000000602082015250565b6000613c89603583613361565b9150613c9482613c2d565b604082019050919050565b60006020820190508181036000830152613cb881613c7c565b9050919050565b7f4e487b7100000000000000000000000000000000000000000000000000000000600052601160045260246000fd5b6000613cf982613411565b9150613d0483613411565b9250827fffffffffffffffffffffffffffffffffffffffffffffffffffffffffffffffff03821115613d3957613d38613cbf565b5b828201905092915050565b7f536b6174657250756e6b733a204d617820737570706c79206578636565646564600082015250565b6000613d7a602083613361565b9150613d8582613d44565b602082019050919050565b60006020820190508181036000830152613da981613d6d565b9050919050565b6000613dbb82613411565b9150613dc683613411565b9250817fffffffffffffffffffffffffffffffffffffffffffffffffffffffffffffffff0483118215151615613dff57613dfe613cbf565b5b828202905092915050565b7f536b6174657250756e6b733a20496e73756666696369656e742066756e647300600082015250565b6000613e40601f83613361565b9150613e4b82613e0a565b602082019050919050565b60006020820190508181036000830152613e6f81613e33565b9050919050565b7f536b6174657250756e6b733a2054686520636f6e74726163742069732070617560008201527f7365640000000000000000000000000000000000000000000000000000000000602082015250565b6000613ed2602383613361565b9150613edd82613e76565b604082019050919050565b60006020820190508181036000830152613f0181613ec5565b9050919050565b7f536b6174657250756e6b733a2055524920717565727920666f72206e6f6e657860008201527f697374656e7420746f6b656e0000000000000000000000000000000000000000602082015250565b6000613f64602c83613361565b9150613f6f82613f08565b604082019050919050565b60006020820190508181036000830152613f9381613f57565b9050919050565b600081905092915050565b60008190508160005260206000209050919050565b60008154613fc781613add565b613fd18186613f9a565b94506001821660008114613fec5760018114613ffd57614030565b60ff19831686528186019350614030565b61400685613fa5565b60005b8381101561402857815481890152600182019150602081019050614009565b838801955050505b50505092915050565b600061404482613356565b61404e8185613f9a565b935061405e818560208601613372565b80840191505092915050565b60006140768286613fba565b91506140828285614039565b915061408e8284613fba565b9150819050949350505050565b7f536b6174657250756e6b733a205468652077686974656c6973742073616c652060008201527f6973206e6f7420656e61626c6564210000000000000000000000000000000000602082015250565b60006140f7602f83613361565b91506141028261409b565b604082019050919050565b60006020820190508181036000830152614126816140ea565b9050919050565b7f536b6174657250756e6b733a204164647265737320616c726561647920636c6160008201527f696d656421000000000000000000000000000000000000000000000000000000602082015250565b6000614189602583613361565b91506141948261412d565b604082019050919050565b600060208201905081810360008301526141b88161417c565b9050919050565b60008160601b9050919050565b60006141d7826141bf565b9050919050565b60006141e9826141cc565b9050919050565b6142016141fc82613494565b6141de565b82525050565b600061421382846141f0565b60148201915081905092915050565b7f536b6174657250756e6b733a20496e76616c69642070726f6f66210000000000600082015250565b6000614258601b83613361565b915061426382614222565b602082019050919050565b600060208201905081810360008301526142878161424b565b9050919050565b7f4f776e61626c653a206e6577206f776e657220697320746865207a65726f206160008201527f6464726573730000000000000000000000000000000000000000000000000000602082015250565b60006142ea602683613361565b91506142f58261428e565b604082019050919050565b60006020820190508181036000830152614319816142dd565b9050919050565b600081519050919050565b600082825260208201905092915050565b600061434782614320565b614351818561432b565b9350614361818560208601613372565b61436a816133a5565b840191505092915050565b600060808201905061438a60008301876134a6565b61439760208301866134a6565b6143a4604083018561353c565b81810360608301526143b6818461433c565b905095945050505050565b6000815190506143d0816132c7565b92915050565b6000602082840312156143ec576143eb613291565b5b60006143fa848285016143c1565b91505092915050565b600061440e82613411565b91507fffffffffffffffffffffffffffffffffffffffffffffffffffffffffffffffff82141561444157614440613cbf565b5b600182019050919050565b7f4e487b7100000000000000000000000000000000000000000000000000000000600052601260045260246000fd5b600061448682613411565b915061449183613411565b9250826144a1576144a061444c565b5b828204905092915050565b60006144b782613411565b91506144c283613411565b9250828210156144d5576144d4613cbf565b5b828203905092915050565b60006144eb82613411565b91506144f683613411565b9250826145065761450561444c565b5b828206905092915050565b7f4e487b7100000000000000000000000000000000000000000000000000000000600052603260045260246000fd5b6000819050919050565b61455b61455682613790565b614540565b82525050565b600061456d828561454a565b60208201915061457d828461454a565b602082019150819050939250505056fea2646970667358221220fc69f56587e459a2708dc7328e3b85e3319322b220373b9434e7f6201189800564736f6c63430008090033",
	"linkReferences": {},
	"deployedLinkReferences": {}
}